{
  "address": "0x96e194F99968a4a65593FA7A58558DeF91c8b466",
  "abi": [
    {
      "inputs": [
        {
          "internalType": "string",
          "name": "name",
          "type": "string"
        },
        {
          "internalType": "string",
          "name": "symbol",
          "type": "string"
        },
        {
          "internalType": "address",
          "name": "initialOwner",
          "type": "address"
        },
        {
          "internalType": "address",
          "name": "usdcAddress",
          "type": "address"
        },
        {
          "internalType": "address",
          "name": "_contentCreatorAddress",
          "type": "address"
        }
      ],
      "stateMutability": "nonpayable",
      "type": "constructor"
    },
    {
      "inputs": [
        {
          "internalType": "address",
          "name": "spender",
          "type": "address"
        },
        {
          "internalType": "uint256",
          "name": "allowance",
          "type": "uint256"
        },
        {
          "internalType": "uint256",
          "name": "needed",
          "type": "uint256"
        }
      ],
      "name": "ERC20InsufficientAllowance",
      "type": "error"
    },
    {
      "inputs": [
        {
          "internalType": "address",
          "name": "sender",
          "type": "address"
        },
        {
          "internalType": "uint256",
          "name": "balance",
          "type": "uint256"
        },
        {
          "internalType": "uint256",
          "name": "needed",
          "type": "uint256"
        }
      ],
      "name": "ERC20InsufficientBalance",
      "type": "error"
    },
    {
      "inputs": [
        {
          "internalType": "address",
          "name": "approver",
          "type": "address"
        }
      ],
      "name": "ERC20InvalidApprover",
      "type": "error"
    },
    {
      "inputs": [
        {
          "internalType": "address",
          "name": "receiver",
          "type": "address"
        }
      ],
      "name": "ERC20InvalidReceiver",
      "type": "error"
    },
    {
      "inputs": [
        {
          "internalType": "address",
          "name": "sender",
          "type": "address"
        }
      ],
      "name": "ERC20InvalidSender",
      "type": "error"
    },
    {
      "inputs": [
        {
          "internalType": "address",
          "name": "spender",
          "type": "address"
        }
      ],
      "name": "ERC20InvalidSpender",
      "type": "error"
    },
    {
      "inputs": [],
      "name": "EnforcedPause",
      "type": "error"
    },
    {
      "inputs": [],
      "name": "ExpectedPause",
      "type": "error"
    },
    {
      "inputs": [
        {
          "internalType": "address",
          "name": "owner",
          "type": "address"
        }
      ],
      "name": "OwnableInvalidOwner",
      "type": "error"
    },
    {
      "inputs": [
        {
          "internalType": "address",
          "name": "account",
          "type": "address"
        }
      ],
      "name": "OwnableUnauthorizedAccount",
      "type": "error"
    },
    {
      "anonymous": false,
      "inputs": [
        {
          "indexed": true,
          "internalType": "address",
          "name": "owner",
          "type": "address"
        },
        {
          "indexed": true,
          "internalType": "address",
          "name": "spender",
          "type": "address"
        },
        {
          "indexed": false,
          "internalType": "uint256",
          "name": "value",
          "type": "uint256"
        }
      ],
      "name": "Approval",
      "type": "event"
    },
    {
      "anonymous": false,
      "inputs": [
        {
          "indexed": true,
          "internalType": "address",
          "name": "previousOwner",
          "type": "address"
        },
        {
          "indexed": true,
          "internalType": "address",
          "name": "newOwner",
          "type": "address"
        }
      ],
      "name": "OwnershipTransferred",
      "type": "event"
    },
    {
      "anonymous": false,
      "inputs": [
        {
          "indexed": false,
          "internalType": "address",
          "name": "account",
          "type": "address"
        }
      ],
      "name": "Paused",
      "type": "event"
    },
    {
      "anonymous": false,
      "inputs": [
        {
          "indexed": true,
          "internalType": "address",
          "name": "buyer",
          "type": "address"
        }
      ],
      "name": "SubscriptionPurchased",
      "type": "event"
    },
    {
      "anonymous": false,
      "inputs": [
        {
          "indexed": false,
          "internalType": "uint256",
          "name": "amountBurned",
          "type": "uint256"
        }
      ],
      "name": "TokensBurned",
      "type": "event"
    },
    {
      "anonymous": false,
      "inputs": [
        {
          "indexed": true,
          "internalType": "address",
          "name": "buyer",
          "type": "address"
        },
        {
          "indexed": false,
          "internalType": "uint256",
          "name": "amountSpent",
          "type": "uint256"
        },
        {
          "indexed": false,
          "internalType": "uint256",
          "name": "tokensMinted",
          "type": "uint256"
        }
      ],
      "name": "TokensPurchased",
      "type": "event"
    },
    {
      "anonymous": false,
      "inputs": [
        {
          "indexed": true,
          "internalType": "address",
          "name": "from",
          "type": "address"
        },
        {
          "indexed": true,
          "internalType": "address",
          "name": "to",
          "type": "address"
        },
        {
          "indexed": false,
          "internalType": "uint256",
          "name": "value",
          "type": "uint256"
        }
      ],
      "name": "Transfer",
      "type": "event"
    },
    {
      "anonymous": false,
      "inputs": [
        {
          "indexed": false,
          "internalType": "address",
          "name": "account",
          "type": "address"
        }
      ],
      "name": "Unpaused",
      "type": "event"
    },
    {
      "inputs": [
        {
          "internalType": "address",
          "name": "owner",
          "type": "address"
        },
        {
          "internalType": "address",
          "name": "spender",
          "type": "address"
        }
      ],
      "name": "allowance",
      "outputs": [
        {
          "internalType": "uint256",
          "name": "",
          "type": "uint256"
        }
      ],
      "stateMutability": "view",
      "type": "function"
    },
    {
      "inputs": [
        {
          "internalType": "address",
          "name": "spender",
          "type": "address"
        },
        {
          "internalType": "uint256",
          "name": "value",
          "type": "uint256"
        }
      ],
      "name": "approve",
      "outputs": [
        {
          "internalType": "bool",
          "name": "",
          "type": "bool"
        }
      ],
      "stateMutability": "nonpayable",
      "type": "function"
    },
    {
      "inputs": [
        {
          "internalType": "address",
          "name": "account",
          "type": "address"
        }
      ],
      "name": "balanceOf",
      "outputs": [
        {
          "internalType": "uint256",
          "name": "",
          "type": "uint256"
        }
      ],
      "stateMutability": "view",
      "type": "function"
    },
    {
      "inputs": [
        {
          "internalType": "uint256",
          "name": "value",
          "type": "uint256"
        }
      ],
      "name": "burn",
      "outputs": [],
      "stateMutability": "nonpayable",
      "type": "function"
    },
    {
      "inputs": [
        {
          "internalType": "address",
          "name": "account",
          "type": "address"
        },
        {
          "internalType": "uint256",
          "name": "value",
          "type": "uint256"
        }
      ],
      "name": "burnFrom",
      "outputs": [],
      "stateMutability": "nonpayable",
      "type": "function"
    },
    {
      "inputs": [
        {
          "internalType": "uint256",
          "name": "usdcAmount",
          "type": "uint256"
        }
      ],
      "name": "calculatePurchaseReturnPrice",
      "outputs": [
        {
          "internalType": "uint256",
          "name": "",
          "type": "uint256"
        }
      ],
      "stateMutability": "view",
      "type": "function"
    },
    {
      "inputs": [],
      "name": "calculateSubscriptionPrice",
      "outputs": [
        {
          "internalType": "uint256",
          "name": "",
          "type": "uint256"
        }
      ],
      "stateMutability": "view",
      "type": "function"
    },
    {
      "inputs": [],
      "name": "contentCreatorAddress",
      "outputs": [
        {
          "internalType": "address",
          "name": "",
          "type": "address"
        }
      ],
      "stateMutability": "view",
      "type": "function"
    },
    {
      "inputs": [],
      "name": "contentCreatorBalance",
      "outputs": [
        {
          "internalType": "uint256",
          "name": "",
          "type": "uint256"
        }
      ],
      "stateMutability": "view",
      "type": "function"
    },
    {
      "inputs": [],
      "name": "creatorBalanceWithdrawal",
      "outputs": [],
      "stateMutability": "nonpayable",
      "type": "function"
    },
    {
      "inputs": [],
      "name": "decimals",
      "outputs": [
        {
          "internalType": "uint8",
          "name": "",
          "type": "uint8"
        }
      ],
      "stateMutability": "pure",
      "type": "function"
    },
    {
      "inputs": [],
      "name": "fixedSubscriptionPrice",
      "outputs": [
        {
          "internalType": "uint256",
          "name": "",
          "type": "uint256"
        }
      ],
      "stateMutability": "view",
      "type": "function"
    },
    {
      "inputs": [],
      "name": "name",
      "outputs": [
        {
          "internalType": "string",
          "name": "",
          "type": "string"
        }
      ],
      "stateMutability": "view",
      "type": "function"
    },
    {
      "inputs": [],
      "name": "owner",
      "outputs": [
        {
          "internalType": "address",
          "name": "",
          "type": "address"
        }
      ],
      "stateMutability": "view",
      "type": "function"
    },
    {
      "inputs": [],
      "name": "pause",
      "outputs": [],
      "stateMutability": "nonpayable",
      "type": "function"
    },
    {
      "inputs": [],
      "name": "paused",
      "outputs": [
        {
          "internalType": "bool",
          "name": "",
          "type": "bool"
        }
      ],
      "stateMutability": "view",
      "type": "function"
    },
    {
      "inputs": [],
      "name": "protocolTreasuryBalance",
      "outputs": [
        {
          "internalType": "uint256",
          "name": "",
          "type": "uint256"
        }
      ],
      "stateMutability": "view",
      "type": "function"
    },
    {
      "inputs": [],
      "name": "protocolTreasuryBalanceWithdrawal",
      "outputs": [],
      "stateMutability": "nonpayable",
      "type": "function"
    },
    {
      "inputs": [],
      "name": "purchaseSubscription",
      "outputs": [],
      "stateMutability": "nonpayable",
      "type": "function"
    },
    {
      "inputs": [
        {
          "internalType": "uint256",
          "name": "usdcAmount",
          "type": "uint256"
        }
      ],
      "name": "purchaseTokens",
      "outputs": [],
      "stateMutability": "nonpayable",
      "type": "function"
    },
    {
      "inputs": [],
      "name": "renounceOwnership",
      "outputs": [],
      "stateMutability": "nonpayable",
      "type": "function"
    },
    {
      "inputs": [],
      "name": "reserveRatio",
      "outputs": [
        {
          "internalType": "uint256",
          "name": "",
          "type": "uint256"
        }
      ],
      "stateMutability": "view",
      "type": "function"
    },
    {
      "inputs": [],
      "name": "supply",
      "outputs": [
        {
          "internalType": "uint256",
          "name": "",
          "type": "uint256"
        }
      ],
      "stateMutability": "view",
      "type": "function"
    },
    {
      "inputs": [],
      "name": "symbol",
      "outputs": [
        {
          "internalType": "string",
          "name": "",
          "type": "string"
        }
      ],
      "stateMutability": "view",
      "type": "function"
    },
    {
      "inputs": [],
      "name": "totalBurnedTokens",
      "outputs": [
        {
          "internalType": "uint256",
          "name": "",
          "type": "uint256"
        }
      ],
      "stateMutability": "view",
      "type": "function"
    },
    {
      "inputs": [],
      "name": "totalContractBalance",
      "outputs": [
        {
          "internalType": "uint256",
          "name": "",
          "type": "uint256"
        }
      ],
      "stateMutability": "view",
      "type": "function"
    },
    {
      "inputs": [],
      "name": "totalMintedTokens",
      "outputs": [
        {
          "internalType": "uint256",
          "name": "",
          "type": "uint256"
        }
      ],
      "stateMutability": "view",
      "type": "function"
    },
    {
      "inputs": [],
      "name": "totalSubscriptionsPurchased",
      "outputs": [
        {
          "internalType": "uint256",
          "name": "",
          "type": "uint256"
        }
      ],
      "stateMutability": "view",
      "type": "function"
    },
    {
      "inputs": [],
      "name": "totalSupply",
      "outputs": [
        {
          "internalType": "uint256",
          "name": "",
          "type": "uint256"
        }
      ],
      "stateMutability": "view",
      "type": "function"
    },
    {
      "inputs": [
        {
          "internalType": "address",
          "name": "to",
          "type": "address"
        },
        {
          "internalType": "uint256",
          "name": "value",
          "type": "uint256"
        }
      ],
      "name": "transfer",
      "outputs": [
        {
          "internalType": "bool",
          "name": "",
          "type": "bool"
        }
      ],
      "stateMutability": "nonpayable",
      "type": "function"
    },
    {
      "inputs": [
        {
          "internalType": "address",
          "name": "from",
          "type": "address"
        },
        {
          "internalType": "address",
          "name": "to",
          "type": "address"
        },
        {
          "internalType": "uint256",
          "name": "value",
          "type": "uint256"
        }
      ],
      "name": "transferFrom",
      "outputs": [
        {
          "internalType": "bool",
          "name": "",
          "type": "bool"
        }
      ],
      "stateMutability": "nonpayable",
      "type": "function"
    },
    {
      "inputs": [
        {
          "internalType": "address",
          "name": "newOwner",
          "type": "address"
        }
      ],
      "name": "transferOwnership",
      "outputs": [],
      "stateMutability": "nonpayable",
      "type": "function"
    },
    {
      "inputs": [],
      "name": "unpause",
      "outputs": [],
      "stateMutability": "nonpayable",
      "type": "function"
    },
    {
      "inputs": [],
      "name": "usdc",
      "outputs": [
        {
          "internalType": "contract IERC20",
          "name": "",
          "type": "address"
        }
      ],
      "stateMutability": "view",
      "type": "function"
    }
  ],
  "transactionHash": "0x3130284d18f908bc3058a50e5ec927bbc146c6b83deabcd36f93a4ac7fe1c852",
  "args": [
    "GabrielBondingCurveToken",
    "GBCT",
    "0xCBD0DA5A02c31E504a812205089E876b5a329BB1",
    "0x552238bb1A4702bDDb8a2f19C5c4Ff1387BA423e",
    "0xCBD0DA5A02c31E504a812205089E876b5a329BB1"
  ],
  "numDeployments": 1,
  "solcInputHash": "29366dd3a9851bcab6ac9894ca0d41dc",
  "bytecode": "0x60806040523480156200001157600080fd5b5060405162002f9f38038062002f9f83398181016040528101906200003791906200044d565b82858581600390816200004b91906200075e565b5080600490816200005d91906200075e565b5050506000600560006101000a81548160ff021916908315150217905550600073ffffffffffffffffffffffffffffffffffffffff168173ffffffffffffffffffffffffffffffffffffffff1603620000f05760006040517f1e4fbdf7000000000000000000000000000000000000000000000000000000008152600401620000e7919062000856565b60405180910390fd5b62000101816200018f60201b60201c565b5081600d60006101000a81548173ffffffffffffffffffffffffffffffffffffffff021916908373ffffffffffffffffffffffffffffffffffffffff16021790555080600c60006101000a81548173ffffffffffffffffffffffffffffffffffffffff021916908373ffffffffffffffffffffffffffffffffffffffff160217905550505050505062000873565b6000600560019054906101000a900473ffffffffffffffffffffffffffffffffffffffff16905081600560016101000a81548173ffffffffffffffffffffffffffffffffffffffff021916908373ffffffffffffffffffffffffffffffffffffffff1602179055508173ffffffffffffffffffffffffffffffffffffffff168173ffffffffffffffffffffffffffffffffffffffff167f8be0079c531659141344cd1fd0a4f28419497f9722a3daafe3b4186f6b6457e060405160405180910390a35050565b6000604051905090565b600080fd5b600080fd5b600080fd5b600080fd5b6000601f19601f8301169050919050565b7f4e487b7100000000000000000000000000000000000000000000000000000000600052604160045260246000fd5b620002be8262000273565b810181811067ffffffffffffffff82111715620002e057620002df62000284565b5b80604052505050565b6000620002f562000255565b9050620003038282620002b3565b919050565b600067ffffffffffffffff82111562000326576200032562000284565b5b620003318262000273565b9050602081019050919050565b60005b838110156200035e57808201518184015260208101905062000341565b60008484015250505050565b6000620003816200037b8462000308565b620002e9565b905082815260208101848484011115620003a0576200039f6200026e565b5b620003ad8482856200033e565b509392505050565b600082601f830112620003cd57620003cc62000269565b5b8151620003df8482602086016200036a565b91505092915050565b600073ffffffffffffffffffffffffffffffffffffffff82169050919050565b60006200041582620003e8565b9050919050565b620004278162000408565b81146200043357600080fd5b50565b60008151905062000447816200041c565b92915050565b600080600080600060a086880312156200046c576200046b6200025f565b5b600086015167ffffffffffffffff8111156200048d576200048c62000264565b5b6200049b88828901620003b5565b955050602086015167ffffffffffffffff811115620004bf57620004be62000264565b5b620004cd88828901620003b5565b9450506040620004e08882890162000436565b9350506060620004f38882890162000436565b9250506080620005068882890162000436565b9150509295509295909350565b600081519050919050565b7f4e487b7100000000000000000000000000000000000000000000000000000000600052602260045260246000fd5b600060028204905060018216806200056657607f821691505b6020821081036200057c576200057b6200051e565b5b50919050565b60008190508160005260206000209050919050565b60006020601f8301049050919050565b600082821b905092915050565b600060088302620005e67fffffffffffffffffffffffffffffffffffffffffffffffffffffffffffffffff82620005a7565b620005f28683620005a7565b95508019841693508086168417925050509392505050565b6000819050919050565b6000819050919050565b60006200063f6200063962000633846200060a565b62000614565b6200060a565b9050919050565b6000819050919050565b6200065b836200061e565b620006736200066a8262000646565b848454620005b4565b825550505050565b600090565b6200068a6200067b565b6200069781848462000650565b505050565b5b81811015620006bf57620006b360008262000680565b6001810190506200069d565b5050565b601f8211156200070e57620006d88162000582565b620006e38462000597565b81016020851015620006f3578190505b6200070b620007028562000597565b8301826200069c565b50505b505050565b600082821c905092915050565b6000620007336000198460080262000713565b1980831691505092915050565b60006200074e838362000720565b9150826002028217905092915050565b620007698262000513565b67ffffffffffffffff81111562000785576200078462000284565b5b6200079182546200054d565b6200079e828285620006c3565b600060209050601f831160018114620007d65760008415620007c1578287015190505b620007cd858262000740565b8655506200083d565b601f198416620007e68662000582565b60005b828110156200081057848901518255600182019150602085019450602081019050620007e9565b868310156200083057848901516200082c601f89168262000720565b8355505b6001600288020188555050505b505050505050565b620008508162000408565b82525050565b60006020820190506200086d600083018462000845565b92915050565b61271c80620008836000396000f3fe608060405234801561001057600080fd5b50600436106102065760003560e01c806379cc67901161011a5780639dfc16a3116100ad578063db242e631161007c578063db242e6314610575578063dd62ed3e1461057f578063e69e8fe7146105af578063f2fde38b146105cd578063fce3cc7f146105e957610206565b80639dfc16a3146104ff578063a9059cbb1461051d578063bac03cd71461054d578063db1bed221461056b57610206565b80638da5cb5b116100e95780638da5cb5b146104875780638e32e316146104a557806395d89b41146104c35780639ad57e25146104e157610206565b806379cc6790146104275780637b97008d146104435780638456cb591461045f578063863eb85c1461046957610206565b80633e413bee1161019d5780635783d4a81161016c5780635783d4a8146103815780635c975abb146103b157806370a08231146103cf578063715018a6146103ff57806373415dfb1461040957610206565b80633e413bee1461031f5780633f4ba83a1461033d57806342966c6814610347578063555f323a1461036357610206565b806318160ddd116101d957806318160ddd1461029557806323b872dd146102b35780632d923d14146102e3578063313ce5671461030157610206565b8063047fc9aa1461020b57806306fdde0314610229578063095ea7b3146102475780630c7d5cd814610277575b600080fd5b6102136105f3565b6040516102209190611c31565b60405180910390f35b6102316105fa565b60405161023e9190611cdc565b60405180910390f35b610261600480360381019061025c9190611d8d565b61068c565b60405161026e9190611de8565b60405180910390f35b61027f6106af565b60405161028c9190611c31565b60405180910390f35b61029d6106b6565b6040516102aa9190611c31565b60405180910390f35b6102cd60048036038101906102c89190611e03565b6106c0565b6040516102da9190611de8565b60405180910390f35b6102eb6106ef565b6040516102f89190611c31565b60405180910390f35b6103096106f5565b6040516103169190611e72565b60405180910390f35b6103276106fe565b6040516103349190611eec565b60405180910390f35b610345610724565b005b610361600480360381019061035c9190611f07565b610736565b005b61036b61074a565b6040516103789190611c31565b60405180910390f35b61039b60048036038101906103969190611f07565b610750565b6040516103a89190611c31565b60405180910390f35b6103b9610783565b6040516103c69190611de8565b60405180910390f35b6103e960048036038101906103e49190611f34565b61079a565b6040516103f69190611c31565b60405180910390f35b6104076107e2565b005b6104116107f6565b60405161041e9190611c31565b60405180910390f35b610441600480360381019061043c9190611d8d565b6107fe565b005b61045d60048036038101906104589190611f07565b61081e565b005b610467610b7d565b005b610471610b8f565b60405161047e9190611f70565b60405180910390f35b61048f610bb5565b60405161049c9190611f70565b60405180910390f35b6104ad610bdf565b6040516104ba9190611c31565b60405180910390f35b6104cb610be5565b6040516104d89190611cdc565b60405180910390f35b6104e9610c77565b6040516104f69190611c31565b60405180910390f35b610507610c7d565b6040516105149190611c31565b60405180910390f35b61053760048036038101906105329190611d8d565b610c96565b6040516105449190611de8565b60405180910390f35b610555610cb9565b6040516105629190611c31565b60405180910390f35b610573610cbf565b005b61057d610eff565b005b61059960048036038101906105949190611f8b565b61100f565b6040516105a69190611c31565b60405180910390f35b6105b7611096565b6040516105c49190611c31565b60405180910390f35b6105e760048036038101906105e29190611f34565b61109c565b005b6105f1611122565b005b620f424081565b60606003805461060990611ffa565b80601f016020809104026020016040519081016040528092919081815260200182805461063590611ffa565b80156106825780601f1061065757610100808354040283529160200191610682565b820191906000526020600020905b81548152906001019060200180831161066557829003601f168201915b5050505050905090565b6000806106976112ba565b90506106a48185856112c2565b600191505092915050565b620f424081565b6000600254905090565b6000806106cb6112ba565b90506106d88582856112d4565b6106e3858585611368565b60019150509392505050565b600b5481565b60006006905090565b600d60009054906101000a900473ffffffffffffffffffffffffffffffffffffffff1681565b61072c61145c565b6107346114e3565b565b6107476107416112ba565b82611546565b50565b600a5481565b6000620f4240600954610763919061205a565b620f424083610772919061208e565b61077c91906120ff565b9050919050565b6000600560009054906101000a900460ff16905090565b60008060008373ffffffffffffffffffffffffffffffffffffffff1673ffffffffffffffffffffffffffffffffffffffff168152602001908152602001600020549050919050565b6107ea61145c565b6107f460006115c8565b565b63017d784081565b6108108261080a6112ba565b836112d4565b61081a8282611546565b5050565b6000600d60009054906101000a900473ffffffffffffffffffffffffffffffffffffffff1673ffffffffffffffffffffffffffffffffffffffff166370a08231336040518263ffffffff1660e01b815260040161087b9190611f70565b602060405180830381865afa158015610898573d6000803e3d6000fd5b505050506040513d601f19601f820116820180604052508101906108bc9190612145565b116108fc576040517f08c379a00000000000000000000000000000000000000000000000000000000081526004016108f3906121e4565b60405180910390fd5b80600d60009054906101000a900473ffffffffffffffffffffffffffffffffffffffff1673ffffffffffffffffffffffffffffffffffffffff1663dd62ed3e33306040518363ffffffff1660e01b815260040161095a929190612204565b602060405180830381865afa158015610977573d6000803e3d6000fd5b505050506040513d601f19601f8201168201806040525081019061099b9190612145565b116109db576040517f08c379a00000000000000000000000000000000000000000000000000000000081526004016109d29061229f565b60405180910390fd5b600d60009054906101000a900473ffffffffffffffffffffffffffffffffffffffff1673ffffffffffffffffffffffffffffffffffffffff166323b872dd3330846040518463ffffffff1660e01b8152600401610a3a939291906122bf565b6020604051808303816000875af1158015610a59573d6000803e3d6000fd5b505050506040513d601f19601f82011682018060405250810190610a7d9190612322565b506000610a8982610750565b90506064601483610a9a919061208e565b610aa491906120ff565b60066000828254610ab5919061205a565b925050819055506064605083610acb919061208e565b610ad591906120ff565b60076000828254610ae6919061205a565b925050819055508160086000828254610aff919061205a565b925050819055508060096000828254610b18919061205a565b92505081905550610b29338261168e565b3373ffffffffffffffffffffffffffffffffffffffff167f8fafebcaf9d154343dad25669bfa277f4fbacd7ac6b0c4fed522580e040a0f338383604051610b7192919061234f565b60405180910390a25050565b610b8561145c565b610b8d611710565b565b600c60009054906101000a900473ffffffffffffffffffffffffffffffffffffffff1681565b6000600560019054906101000a900473ffffffffffffffffffffffffffffffffffffffff16905090565b60095481565b606060048054610bf490611ffa565b80601f0160208091040260200160405190810160405280929190818152602001828054610c2090611ffa565b8015610c6d5780601f10610c4257610100808354040283529160200191610c6d565b820191906000526020600020905b815481529060010190602001808311610c5057829003601f168201915b5050505050905090565b60075481565b600080610c8d63017d7840610750565b90508091505090565b600080610ca16112ba565b9050610cae818585611368565b600191505092915050565b60085481565b6000610cc9610c7d565b9050803073ffffffffffffffffffffffffffffffffffffffff166370a08231336040518263ffffffff1660e01b8152600401610d059190611f70565b602060405180830381865afa158015610d22573d6000803e3d6000fd5b505050506040513d601f19601f82011682018060405250810190610d469190612145565b1015610d87576040517f08c379a0000000000000000000000000000000000000000000000000000000008152600401610d7e906123ea565b60405180910390fd5b803073ffffffffffffffffffffffffffffffffffffffff1663dd62ed3e33306040518363ffffffff1660e01b8152600401610dc3929190612204565b602060405180830381865afa158015610de0573d6000803e3d6000fd5b505050506040513d601f19601f82011682018060405250810190610e049190612145565b1015610e45576040517f08c379a0000000000000000000000000000000000000000000000000000000008152600401610e3c9061247c565b60405180910390fd5b610e4f3382611546565b80600a6000828254610e61919061205a565b925050819055506001600b6000828254610e7b919061205a565b925050819055507f6ef4855b666dcc7884561072e4358b28dfe01feb1b7f4dcebc00e62d50394ac781604051610eb19190611c31565b60405180910390a13373ffffffffffffffffffffffffffffffffffffffff167f5671526f14382102dd869527930595699f52feafde5a004f82d18b4c5cdc3ab960405160405180910390a250565b610f0761145c565b600060065411610f4c576040517f08c379a0000000000000000000000000000000000000000000000000000000008152600401610f439061250e565b60405180910390fd5b600d60009054906101000a900473ffffffffffffffffffffffffffffffffffffffff1673ffffffffffffffffffffffffffffffffffffffff1663a9059cbb336006546040518363ffffffff1660e01b8152600401610fab92919061252e565b6020604051808303816000875af1158015610fca573d6000803e3d6000fd5b505050506040513d601f19601f82011682018060405250810190610fee9190612322565b5060006006819055506006546008546110079190612557565b600881905550565b6000600160008473ffffffffffffffffffffffffffffffffffffffff1673ffffffffffffffffffffffffffffffffffffffff16815260200190815260200160002060008373ffffffffffffffffffffffffffffffffffffffff1673ffffffffffffffffffffffffffffffffffffffff16815260200190815260200160002054905092915050565b60065481565b6110a461145c565b600073ffffffffffffffffffffffffffffffffffffffff168173ffffffffffffffffffffffffffffffffffffffff16036111165760006040517f1e4fbdf700000000000000000000000000000000000000000000000000000000815260040161110d9190611f70565b60405180910390fd5b61111f816115c8565b50565b600c60009054906101000a900473ffffffffffffffffffffffffffffffffffffffff1673ffffffffffffffffffffffffffffffffffffffff163373ffffffffffffffffffffffffffffffffffffffff16146111b2576040517f08c379a00000000000000000000000000000000000000000000000000000000081526004016111a9906125fd565b60405180910390fd5b6000600754116111f7576040517f08c379a00000000000000000000000000000000000000000000000000000000081526004016111ee9061268f565b60405180910390fd5b600d60009054906101000a900473ffffffffffffffffffffffffffffffffffffffff1673ffffffffffffffffffffffffffffffffffffffff1663a9059cbb336007546040518363ffffffff1660e01b815260040161125692919061252e565b6020604051808303816000875af1158015611275573d6000803e3d6000fd5b505050506040513d601f19601f820116820180604052508101906112999190612322565b5060006007819055506007546008546112b29190612557565b600881905550565b600033905090565b6112cf8383836001611773565b505050565b60006112e0848461100f565b90507fffffffffffffffffffffffffffffffffffffffffffffffffffffffffffffffff81146113625781811015611352578281836040517ffb8f41b2000000000000000000000000000000000000000000000000000000008152600401611349939291906126af565b60405180910390fd5b61136184848484036000611773565b5b50505050565b600073ffffffffffffffffffffffffffffffffffffffff168373ffffffffffffffffffffffffffffffffffffffff16036113da5760006040517f96c6fd1e0000000000000000000000000000000000000000000000000000000081526004016113d19190611f70565b60405180910390fd5b600073ffffffffffffffffffffffffffffffffffffffff168273ffffffffffffffffffffffffffffffffffffffff160361144c5760006040517fec442f050000000000000000000000000000000000000000000000000000000081526004016114439190611f70565b60405180910390fd5b61145783838361194a565b505050565b6114646112ba565b73ffffffffffffffffffffffffffffffffffffffff16611482610bb5565b73ffffffffffffffffffffffffffffffffffffffff16146114e1576114a56112ba565b6040517f118cdaa70000000000000000000000000000000000000000000000000000000081526004016114d89190611f70565b60405180910390fd5b565b6114eb61195a565b6000600560006101000a81548160ff0219169083151502179055507f5db9ee0a495bf2e6ff9c91a7834c1ba4fdd244a5e8aa4e537bd38aeae4b073aa61152f6112ba565b60405161153c9190611f70565b60405180910390a1565b600073ffffffffffffffffffffffffffffffffffffffff168273ffffffffffffffffffffffffffffffffffffffff16036115b85760006040517f96c6fd1e0000000000000000000000000000000000000000000000000000000081526004016115af9190611f70565b60405180910390fd5b6115c48260008361194a565b5050565b6000600560019054906101000a900473ffffffffffffffffffffffffffffffffffffffff16905081600560016101000a81548173ffffffffffffffffffffffffffffffffffffffff021916908373ffffffffffffffffffffffffffffffffffffffff1602179055508173ffffffffffffffffffffffffffffffffffffffff168173ffffffffffffffffffffffffffffffffffffffff167f8be0079c531659141344cd1fd0a4f28419497f9722a3daafe3b4186f6b6457e060405160405180910390a35050565b600073ffffffffffffffffffffffffffffffffffffffff168273ffffffffffffffffffffffffffffffffffffffff16036117005760006040517fec442f050000000000000000000000000000000000000000000000000000000081526004016116f79190611f70565b60405180910390fd5b61170c6000838361194a565b5050565b61171861199a565b6001600560006101000a81548160ff0219169083151502179055507f62e78cea01bee320cd4e420270b5ea74000d11b0c9f74754ebdbfc544b05a25861175c6112ba565b6040516117699190611f70565b60405180910390a1565b600073ffffffffffffffffffffffffffffffffffffffff168473ffffffffffffffffffffffffffffffffffffffff16036117e55760006040517fe602df050000000000000000000000000000000000000000000000000000000081526004016117dc9190611f70565b60405180910390fd5b600073ffffffffffffffffffffffffffffffffffffffff168373ffffffffffffffffffffffffffffffffffffffff16036118575760006040517f94280d6200000000000000000000000000000000000000000000000000000000815260040161184e9190611f70565b60405180910390fd5b81600160008673ffffffffffffffffffffffffffffffffffffffff1673ffffffffffffffffffffffffffffffffffffffff16815260200190815260200160002060008573ffffffffffffffffffffffffffffffffffffffff1673ffffffffffffffffffffffffffffffffffffffff168152602001908152602001600020819055508015611944578273ffffffffffffffffffffffffffffffffffffffff168473ffffffffffffffffffffffffffffffffffffffff167f8c5be1e5ebec7d5bd14f71427d1e84f3dd0314c0f7b2291e5b200ac8c7c3b9258460405161193b9190611c31565b60405180910390a35b50505050565b6119558383836119db565b505050565b611962610783565b611998576040517f8dfc202b00000000000000000000000000000000000000000000000000000000815260040160405180910390fd5b565b6119a2610783565b156119d9576040517fd93c066500000000000000000000000000000000000000000000000000000000815260040160405180910390fd5b565b6119e361199a565b6119ee8383836119f3565b505050565b600073ffffffffffffffffffffffffffffffffffffffff168373ffffffffffffffffffffffffffffffffffffffff1603611a45578060026000828254611a39919061205a565b92505081905550611b18565b60008060008573ffffffffffffffffffffffffffffffffffffffff1673ffffffffffffffffffffffffffffffffffffffff16815260200190815260200160002054905081811015611ad1578381836040517fe450d38c000000000000000000000000000000000000000000000000000000008152600401611ac8939291906126af565b60405180910390fd5b8181036000808673ffffffffffffffffffffffffffffffffffffffff1673ffffffffffffffffffffffffffffffffffffffff16815260200190815260200160002081905550505b600073ffffffffffffffffffffffffffffffffffffffff168273ffffffffffffffffffffffffffffffffffffffff1603611b615780600260008282540392505081905550611bae565b806000808473ffffffffffffffffffffffffffffffffffffffff1673ffffffffffffffffffffffffffffffffffffffff168152602001908152602001600020600082825401925050819055505b8173ffffffffffffffffffffffffffffffffffffffff168373ffffffffffffffffffffffffffffffffffffffff167fddf252ad1be2c89b69c2b068fc378daa952ba7f163c4a11628f55a4df523b3ef83604051611c0b9190611c31565b60405180910390a3505050565b6000819050919050565b611c2b81611c18565b82525050565b6000602082019050611c466000830184611c22565b92915050565b600081519050919050565b600082825260208201905092915050565b60005b83811015611c86578082015181840152602081019050611c6b565b60008484015250505050565b6000601f19601f8301169050919050565b6000611cae82611c4c565b611cb88185611c57565b9350611cc8818560208601611c68565b611cd181611c92565b840191505092915050565b60006020820190508181036000830152611cf68184611ca3565b905092915050565b600080fd5b600073ffffffffffffffffffffffffffffffffffffffff82169050919050565b6000611d2e82611d03565b9050919050565b611d3e81611d23565b8114611d4957600080fd5b50565b600081359050611d5b81611d35565b92915050565b611d6a81611c18565b8114611d7557600080fd5b50565b600081359050611d8781611d61565b92915050565b60008060408385031215611da457611da3611cfe565b5b6000611db285828601611d4c565b9250506020611dc385828601611d78565b9150509250929050565b60008115159050919050565b611de281611dcd565b82525050565b6000602082019050611dfd6000830184611dd9565b92915050565b600080600060608486031215611e1c57611e1b611cfe565b5b6000611e2a86828701611d4c565b9350506020611e3b86828701611d4c565b9250506040611e4c86828701611d78565b9150509250925092565b600060ff82169050919050565b611e6c81611e56565b82525050565b6000602082019050611e876000830184611e63565b92915050565b6000819050919050565b6000611eb2611ead611ea884611d03565b611e8d565b611d03565b9050919050565b6000611ec482611e97565b9050919050565b6000611ed682611eb9565b9050919050565b611ee681611ecb565b82525050565b6000602082019050611f016000830184611edd565b92915050565b600060208284031215611f1d57611f1c611cfe565b5b6000611f2b84828501611d78565b91505092915050565b600060208284031215611f4a57611f49611cfe565b5b6000611f5884828501611d4c565b91505092915050565b611f6a81611d23565b82525050565b6000602082019050611f856000830184611f61565b92915050565b60008060408385031215611fa257611fa1611cfe565b5b6000611fb085828601611d4c565b9250506020611fc185828601611d4c565b9150509250929050565b7f4e487b7100000000000000000000000000000000000000000000000000000000600052602260045260246000fd5b6000600282049050600182168061201257607f821691505b60208210810361202557612024611fcb565b5b50919050565b7f4e487b7100000000000000000000000000000000000000000000000000000000600052601160045260246000fd5b600061206582611c18565b915061207083611c18565b92508282019050808211156120885761208761202b565b5b92915050565b600061209982611c18565b91506120a483611c18565b92508282026120b281611c18565b915082820484148315176120c9576120c861202b565b5b5092915050565b7f4e487b7100000000000000000000000000000000000000000000000000000000600052601260045260246000fd5b600061210a82611c18565b915061211583611c18565b925082612125576121246120d0565b5b828204905092915050565b60008151905061213f81611d61565b92915050565b60006020828403121561215b5761215a611cfe565b5b600061216984828501612130565b91505092915050565b7f4d7573742068617665205553446320746f20707572636861736520746f6b656e60008201527f7300000000000000000000000000000000000000000000000000000000000000602082015250565b60006121ce602183611c57565b91506121d982612172565b604082019050919050565b600060208201905081810360008301526121fd816121c1565b9050919050565b60006040820190506122196000830185611f61565b6122266020830184611f61565b9392505050565b7f4e6f7420656e6f75676820616c6c6f77616e636520746f20707572636861736560008201527f20746f6b656e7300000000000000000000000000000000000000000000000000602082015250565b6000612289602783611c57565b91506122948261222d565b604082019050919050565b600060208201905081810360008301526122b88161227c565b9050919050565b60006060820190506122d46000830186611f61565b6122e16020830185611f61565b6122ee6040830184611c22565b949350505050565b6122ff81611dcd565b811461230a57600080fd5b50565b60008151905061231c816122f6565b92915050565b60006020828403121561233857612337611cfe565b5b60006123468482850161230d565b91505092915050565b60006040820190506123646000830185611c22565b6123716020830184611c22565b9392505050565b7f4e6f7420656e6f75676820746f6b656e7320746f20707572636861736520737560008201527f62736372697074696f6e00000000000000000000000000000000000000000000602082015250565b60006123d4602a83611c57565b91506123df82612378565b604082019050919050565b60006020820190508181036000830152612403816123c7565b9050919050565b7f4e6f7420656e6f75676820616c6c6f77616e636520746f20707572636861736560008201527f20737562736372697074696f6e00000000000000000000000000000000000000602082015250565b6000612466602d83611c57565b91506124718261240a565b604082019050919050565b6000602082019050818103600083015261249581612459565b9050919050565b7f50726f746f636f6c2074726561737572792062616c616e6365206d757374206260008201527f652067726561746572207468616e203020746f20776974686472617700000000602082015250565b60006124f8603c83611c57565b91506125038261249c565b604082019050919050565b60006020820190508181036000830152612527816124eb565b9050919050565b60006040820190506125436000830185611f61565b6125506020830184611c22565b9392505050565b600061256282611c18565b915061256d83611c18565b92508282039050818111156125855761258461202b565b5b92915050565b7f4f6e6c792063726561746f7220616464726573732063616e2063616c6c20746860008201527f69732066756e6374696f6e000000000000000000000000000000000000000000602082015250565b60006125e7602b83611c57565b91506125f28261258b565b604082019050919050565b60006020820190508181036000830152612616816125da565b9050919050565b7f436f6e74656e742043726561746f722062616c616e6365206d7573742062652060008201527f67726561746572207468616e203020746f207769746864726177000000000000602082015250565b6000612679603a83611c57565b91506126848261261d565b604082019050919050565b600060208201905081810360008301526126a88161266c565b9050919050565b60006060820190506126c46000830186611f61565b6126d16020830185611c22565b6126de6040830184611c22565b94935050505056fea2646970667358221220eac654090366e303cf212bfd7103692bbe0b102ee23ed929933151a2537c5fa464736f6c63430008140033",
  "devdoc": {
    "errors": {
      "ERC20InsufficientAllowance(address,uint256,uint256)": [
        {
          "details": "Indicates a failure with the `spender`s `allowance`. Used in transfers.",
          "params": {
            "allowance": "Amount of tokens a `spender` is allowed to operate with.",
            "needed": "Minimum amount required to perform a transfer.",
            "spender": "Address that may be allowed to operate on tokens without being their owner."
          }
        }
      ],
      "ERC20InsufficientBalance(address,uint256,uint256)": [
        {
          "details": "Indicates an error related to the current `balance` of a `sender`. Used in transfers.",
          "params": {
            "balance": "Current balance for the interacting account.",
            "needed": "Minimum amount required to perform a transfer.",
            "sender": "Address whose tokens are being transferred."
          }
        }
      ],
      "ERC20InvalidApprover(address)": [
        {
          "details": "Indicates a failure with the `approver` of a token to be approved. Used in approvals.",
          "params": {
            "approver": "Address initiating an approval operation."
          }
        }
      ],
      "ERC20InvalidReceiver(address)": [
        {
          "details": "Indicates a failure with the token `receiver`. Used in transfers.",
          "params": {
            "receiver": "Address to which tokens are being transferred."
          }
        }
      ],
      "ERC20InvalidSender(address)": [
        {
          "details": "Indicates a failure with the token `sender`. Used in transfers.",
          "params": {
            "sender": "Address whose tokens are being transferred."
          }
        }
      ],
      "ERC20InvalidSpender(address)": [
        {
          "details": "Indicates a failure with the `spender` to be approved. Used in approvals.",
          "params": {
            "spender": "Address that may be allowed to operate on tokens without being their owner."
          }
        }
      ],
      "EnforcedPause()": [
        {
          "details": "The operation failed because the contract is paused."
        }
      ],
      "ExpectedPause()": [
        {
          "details": "The operation failed because the contract is not paused."
        }
      ],
      "OwnableInvalidOwner(address)": [
        {
          "details": "The owner is not a valid owner account. (eg. `address(0)`)"
        }
      ],
      "OwnableUnauthorizedAccount(address)": [
        {
          "details": "The caller account is not authorized to perform an operation."
        }
      ]
    },
    "events": {
      "Approval(address,address,uint256)": {
        "details": "Emitted when the allowance of a `spender` for an `owner` is set by a call to {approve}. `value` is the new allowance."
      },
      "Paused(address)": {
        "details": "Emitted when the pause is triggered by `account`."
      },
      "Transfer(address,address,uint256)": {
        "details": "Emitted when `value` tokens are moved from one account (`from`) to another (`to`). Note that `value` may be zero."
      },
      "Unpaused(address)": {
        "details": "Emitted when the pause is lifted by `account`."
      }
    },
    "kind": "dev",
    "methods": {
      "allowance(address,address)": {
        "details": "See {IERC20-allowance}."
      },
      "approve(address,uint256)": {
        "details": "See {IERC20-approve}. NOTE: If `value` is the maximum `uint256`, the allowance is not updated on `transferFrom`. This is semantically equivalent to an infinite approval. Requirements: - `spender` cannot be the zero address."
      },
      "balanceOf(address)": {
        "details": "See {IERC20-balanceOf}."
      },
      "burn(uint256)": {
        "details": "Destroys a `value` amount of tokens from the caller. See {ERC20-_burn}."
      },
      "burnFrom(address,uint256)": {
        "details": "Destroys a `value` amount of tokens from `account`, deducting from the caller's allowance. See {ERC20-_burn} and {ERC20-allowance}. Requirements: - the caller must have allowance for ``accounts``'s tokens of at least `value`."
      },
      "decimals()": {
        "details": "Returns the number of decimals used to get its user representation. For example, if `decimals` equals `2`, a balance of `505` tokens should be displayed to a user as `5.05` (`505 / 10 ** 2`). Tokens usually opt for a value of 18, imitating the relationship between Ether and Wei. This is the default value returned by this function, unless it's overridden. NOTE: This information is only used for _display_ purposes: it in no way affects any of the arithmetic of the contract, including {IERC20-balanceOf} and {IERC20-transfer}."
      },
      "name()": {
        "details": "Returns the name of the token."
      },
      "owner()": {
        "details": "Returns the address of the current owner."
      },
      "paused()": {
        "details": "Returns true if the contract is paused, and false otherwise."
      },
      "renounceOwnership()": {
        "details": "Leaves the contract without owner. It will not be possible to call `onlyOwner` functions. Can only be called by the current owner. NOTE: Renouncing ownership will leave the contract without an owner, thereby disabling any functionality that is only available to the owner."
      },
      "symbol()": {
        "details": "Returns the symbol of the token, usually a shorter version of the name."
      },
      "totalSupply()": {
        "details": "See {IERC20-totalSupply}."
      },
      "transfer(address,uint256)": {
        "details": "See {IERC20-transfer}. Requirements: - `to` cannot be the zero address. - the caller must have a balance of at least `value`."
      },
      "transferFrom(address,address,uint256)": {
        "details": "See {IERC20-transferFrom}. Emits an {Approval} event indicating the updated allowance. This is not required by the EIP. See the note at the beginning of {ERC20}. NOTE: Does not update the allowance if the current allowance is the maximum `uint256`. Requirements: - `from` and `to` cannot be the zero address. - `from` must have a balance of at least `value`. - the caller must have allowance for ``from``'s tokens of at least `value`."
      },
      "transferOwnership(address)": {
        "details": "Transfers ownership of the contract to a new account (`newOwner`). Can only be called by the current owner."
      }
    },
    "version": 1
  },
  "userdoc": {
    "kind": "user",
    "methods": {},
    "version": 1
  },
  "storageLayout": {
    "storage": [
      {
        "astId": 307,
        "contract": "contracts/BondageCurve.sol:BondageCurve",
        "label": "_balances",
        "offset": 0,
        "slot": "0",
        "type": "t_mapping(t_address,t_uint256)"
      },
      {
        "astId": 313,
        "contract": "contracts/BondageCurve.sol:BondageCurve",
        "label": "_allowances",
        "offset": 0,
        "slot": "1",
        "type": "t_mapping(t_address,t_mapping(t_address,t_uint256))"
      },
      {
        "astId": 315,
        "contract": "contracts/BondageCurve.sol:BondageCurve",
        "label": "_totalSupply",
        "offset": 0,
        "slot": "2",
        "type": "t_uint256"
      },
      {
        "astId": 317,
        "contract": "contracts/BondageCurve.sol:BondageCurve",
        "label": "_name",
        "offset": 0,
        "slot": "3",
        "type": "t_string_storage"
      },
      {
        "astId": 319,
        "contract": "contracts/BondageCurve.sol:BondageCurve",
        "label": "_symbol",
        "offset": 0,
        "slot": "4",
        "type": "t_string_storage"
      },
      {
        "astId": 1022,
        "contract": "contracts/BondageCurve.sol:BondageCurve",
        "label": "_paused",
        "offset": 0,
        "slot": "5",
        "type": "t_bool"
      },
      {
        "astId": 8,
        "contract": "contracts/BondageCurve.sol:BondageCurve",
        "label": "_owner",
        "offset": 1,
        "slot": "5",
        "type": "t_address"
      },
      {
        "astId": 1152,
        "contract": "contracts/BondageCurve.sol:BondageCurve",
        "label": "protocolTreasuryBalance",
        "offset": 0,
        "slot": "6",
        "type": "t_uint256"
      },
      {
        "astId": 1154,
        "contract": "contracts/BondageCurve.sol:BondageCurve",
        "label": "contentCreatorBalance",
        "offset": 0,
        "slot": "7",
        "type": "t_uint256"
      },
      {
        "astId": 1156,
        "contract": "contracts/BondageCurve.sol:BondageCurve",
        "label": "totalContractBalance",
        "offset": 0,
        "slot": "8",
        "type": "t_uint256"
      },
      {
        "astId": 1158,
        "contract": "contracts/BondageCurve.sol:BondageCurve",
        "label": "totalMintedTokens",
        "offset": 0,
        "slot": "9",
        "type": "t_uint256"
      },
      {
        "astId": 1160,
        "contract": "contracts/BondageCurve.sol:BondageCurve",
        "label": "totalBurnedTokens",
        "offset": 0,
        "slot": "10",
        "type": "t_uint256"
      },
      {
        "astId": 1162,
        "contract": "contracts/BondageCurve.sol:BondageCurve",
        "label": "totalSubscriptionsPurchased",
        "offset": 0,
        "slot": "11",
        "type": "t_uint256"
      },
      {
        "astId": 1173,
        "contract": "contracts/BondageCurve.sol:BondageCurve",
        "label": "contentCreatorAddress",
        "offset": 0,
        "slot": "12",
        "type": "t_address"
      },
      {
        "astId": 1176,
        "contract": "contracts/BondageCurve.sol:BondageCurve",
        "label": "usdc",
        "offset": 0,
        "slot": "13",
        "type": "t_contract(IERC20)877"
      }
    ],
    "types": {
      "t_address": {
        "encoding": "inplace",
        "label": "address",
        "numberOfBytes": "20"
      },
      "t_bool": {
        "encoding": "inplace",
        "label": "bool",
        "numberOfBytes": "1"
      },
      "t_contract(IERC20)877": {
        "encoding": "inplace",
        "label": "contract IERC20",
        "numberOfBytes": "20"
      },
      "t_mapping(t_address,t_mapping(t_address,t_uint256))": {
        "encoding": "mapping",
        "key": "t_address",
        "label": "mapping(address => mapping(address => uint256))",
        "numberOfBytes": "32",
        "value": "t_mapping(t_address,t_uint256)"
      },
      "t_mapping(t_address,t_uint256)": {
        "encoding": "mapping",
        "key": "t_address",
        "label": "mapping(address => uint256)",
        "numberOfBytes": "32",
        "value": "t_uint256"
      },
      "t_string_storage": {
        "encoding": "bytes",
        "label": "string",
        "numberOfBytes": "32"
      },
      "t_uint256": {
        "encoding": "inplace",
        "label": "uint256",
        "numberOfBytes": "32"
      }
    }
  }
}